:020000040800F2
:100000000808002089010008E31C0008251B0008DF
:10001000E11C0008E10300080121000800000000C5
:10002000000000000000000000000000E71C0008C5
:100030003304000800000000E51C0008E91C00086B
:10004000A3010008A3010008A3010008A301000800
:10005000A3010008A3010008A3010008A3010008F0
:10006000A3010008A3010008A3010008E50300089C
:10007000A3010008A3010008F1030008FD03000824
:10008000A3010008A301000891020008A3010008D1
:10009000A3010008A3010008A3010008A3010008B0
:1000A000A3010008A3010008A3010008A3010008A0
:1000B000A3010008A3010008A3010008A301000890
:1000C000A3010008A3010008A3010008A301000880
:1000D000A3010008A3010008A3010008A301000870
:1000E000A3010008A3010008A301000800F002F822
:1000F00000F03AF80AA090E8000C82448344AAF188
:100100000107DA4501D100F02FF8AFF2090EBAE885
:100110000F0013F0010F18BFFB1A43F0010318473B
:10012000FC2000001C210000103A24BF78C878C1D0
:10013000FAD8520724BF30C830C144BF04680C60ED
:10014000704700000023002400250026103A28BF35
:1001500078C1FBD8520728BF30C148BF0B60704739
:100160001FB51FBD10B510BD00F058F81146FFF7C0
:10017000F7FF01F0D7FF00F076F803B4FFF7F2FFC6
:1001800003BC00F07DF8000009488047094800479B
:10019000FEE7FEE7FEE7FEE7FEE7FEE7FEE7FEE737
:1001A000FEE7FEE704480549054A064B7047000094
:1001B000651D0008ED000008080200200808002066
:1001C00008040020080400204FF0000200B5134688
:1001D00094469646203922BFA0E80C50A0E80C5067
:1001E000B1F12001BFF4F7AF090728BFA0E80C5018
:1001F00048BF0CC05DF804EB890028BF40F8042B11
:1002000008BF704748BF20F8022B11F0804F18BF7D
:1002100000F8012B7047704770477047754600F033
:100220002BF8AE4605006946534620F00700854688
:1002300018B020B5FFF7B6FFBDE820404FF000062C
:100240004FF000074FF000084FF0000B21F00701BE
:10025000AC46ACE8C009ACE8C009ACE8C009ACE801
:10026000C0098D46704710B50446AFF300802046A4
:10027000BDE81040FFF781BF00487047A40100208F
:1002800001491820ABBEFEE72600020070470000BF
:10029000014800F0B1B900001C00002070B5044610
:1002A00000688168C943C90717D1816821F001013D
:1002B000816000F0EDFD05460AE000BF00F0E8FDBA
:1002C000401B022804D920688068C043C00706D0BC
:1002D00020688068C043C007F0D0002070BDA06ACD
:1002E00040F01000A062E06A40F00100E0620120EE
:1002F00070BD10B50146406A826A12F0500F05D0F9
:10030000006A026BBDE8104008461047816A41F45C
:100310000071816201688968C1F3424107290CD1EB
:10032000017B51B9816A21F480718162816AC904BB
:1003300003D4816A41F00101816200F021F910BD0E
:1003400010B5406A816A41F040018162C16A41F0A2
:100350000401C16200F04FF910BD10B5406A00F011
:1003600049F910BDF8B5002604460096006881687A
:10037000C943C9072DD0816841F001018160164849
:1003800016490068B0FBF1F000E0401E0090002824
:10039000FBD100F07DFD054616E000BF00F078FDC2
:1003A000401B022810D920688068C043C0070BD0CA
:1003B000A06A40F01000A062E06A40F00100E06234
:1003C00084F824600120F8BD20688068C043C0071D
:1003D000E4D10020F8BD00001800002040420F00CA
:1003E000FEE70000014800F02FBB0000D80000200D
:1003F000014800F029BB000060010020014800F026
:1004000023BB00001C01002030B590F840500124AF
:10041000AC40C56B6C60046863604368102B036874
:1004200003D099600068C26030BD9A600068C16006
:1004300030BD704770B50F4D0F4E0024142000F0F2
:1004400013FC1021304600F011FD48B9142000F0D3
:100450000BFC287820B91021304600F007FD28B1A8
:10046000641C052CEADB0020287070BD0120287078
:1004700070BD0000000000200008014072B6FEE7D9
:1004800070470000F8B50024009490F82420254619
:10049000012A12D0012280F824204A681F23072A4B
:1004A0000DD20668776B521E02EB820293409F4387
:1004B0000B6893401F43776319E00220F8BD06687C
:1004C0000D2A0AD2376BD21F02EB820293409F4360
:1004D0000B6893401F43376309E0F76A0D3A02EB5C
:1004E000820293409F430B6893401F43F7620A6860
:1004F000072306680A2A0AD3F7680A3A02EB42027F
:1005000093409F438B6893401F43F76008E037692F
:1005100002EB420293409F438B6893401F43376135
:100520000A68102A01D0112A20D1124B02689A427F
:1005300017D193681B0219D4936843F400039360A6
:100540000968102912D10C490C4A0968B1FBF2F173
:1005500001EB8101490000E0491E00910029FBD117
:1005600004E0816A41F020018162012480F8245076
:100570002046F8BD002401401800002040420F0032
:100580002DE9F041184D012600272888DFF85C800E
:10059000A5F10804B0F57A7F06D200220221404678
:1005A00000F071FCA67005E001220221404600F037
:1005B0006AFCA7706888B0F52F6F06D90022082161
:1005C000404600F060FC667009E040F68C218842ED
:1005D00005D201220821404600F055FC6770BDE8B5
:1005E000F041034800F0E2B9080000200008014093
:1005F0001C0000207047704710B504460068416831
:10060000890626D50168890723D5A16AC90603D4BE
:10061000A16A41F40071A1628168C1F342410729D6
:1006200010D1217B71B9416821F020014160A06A9D
:1006300020F48070A062A06AC00403D4A06A40F0D5
:100640000100A0622046FFF79BFF21686FF01200B7
:1006500008602068416809062ED5016849072BD536
:10066000A16AC90603D4A16A41F40051A16281685C
:10067000C1F30231072909D04168490515D48168C1
:10068000C1F34241072910D1217B71B9416821F0A2
:1006900080014160A06A20F48050A062A06AC00579
:1006A00003D4A06A40F00100A0622046FFF7E8FEF4
:1006B00021686FF00C0008602068416849060DD57C
:1006C0000068C0070AD0A06A40F48030A0622046CB
:1006D00000F094F821686FF00100086010BD000080
:1006E0002DE9F0414FF0000704003D467ED0A06A9E
:1006F000002628B9E66284F82460204600F080F8DD
:100700002046FFF7CBFDA16AC90600D420B1A06A3C
:1007100040F01000A06269E0A16A21F4885141F024
:100720000201A1626268E169237B0A4347EA43014F
:100730000A43A1684FF48077B94209D0012907D054
:100740005FF0000194F814C0BCF1010F02D00AE080
:100750003946F7E7F3B1A36A43F02003A362E36AE3
:1007600043F00103E3622368D3F804C02CF4694C1E
:100770004CEA010CC3F804C021688B68DFF870C034
:1007800003EA0C0313438B60A168B9420BD0012923
:1007900009D00CE0DFF85CC0A3690CEB43330B43DA
:1007A00043F40061DFE7218A0D05A5F58015216876
:1007B000CB6A23F470032B43CB62216889680E4B0C
:1007C0001940914208D1E662A16A21F0020141F08C
:1007D0000101A162BDE8F081A06A20F0020040F0B2
:1007E0001000A062E06A40F00100E0620120F1E741
:1007F000FDF7E1FF00E0FFFFFE0E1FFF7047000066
:1008000070B586B0002506460095019502950395C2
:1008100000681E49884236D11D49886940F400703D
:100820008861886900F400700490886940F00400D1
:1008300088618869694600F00400049005200090F2
:1008400003200190134800F021FA144C1248C4E927
:1008500000058020C4E902504000206180006061F2
:100860002020C4E90605204600F098F908B1FFF7FA
:1008700005FE3462002201211220666200F074FB42
:10088000122000F063FB06B070BD000000240140A0
:10089000001002400008014008000240D80000207B
:1008A0002DE9F047894604463B4900683B4F0E1D41
:1008B0009046884201D0B84207D1306810F4702FBA
:1008C00003D001252846BDE8F08794F824000128CC
:1008D0000CD0012084F824002046FFF743FD0500DA
:1008E0004FF0000004D084F82400EBE70220EAE790
:1008F000A16A40F60162914341F48071A1622168CE
:10090000B94218D1326812F4702F14D0A16A41F4A0
:100910008011A1623168490505D5A16A21F4005111
:1009200041F48051A162A16AC9040AD5E16A21F0AB
:100930000601E16206E0A26A22F48012A26249681E
:10094000E9E7E06284F82400216A15488862216A98
:100950001448C862216A1448086321686FF00200D5
:1009600008602068816841F4807181602168434695
:100970004A464C31206A00F03FF920688168C1F393
:1009800042410729816803D041F48011816099E7D1
:1009900041F4A001FAE700000024014000280140D2
:1009A000F30200085B0300084103000810B5044689
:1009B00090F82400012807D0012084F82400204664
:1009C000FFF76CFC10B113E0022010BD21688A68AB
:1009D00022F480728A60216A91F82120022A07D1CC
:1009E000084600F00EF8A16A30B141F04001A16262
:1009F000002184F8241010BD21F4885141F0010138
:100A0000F5E710B590F821100022022905D0042145
:100A1000816380F82020012010BD01680B6823F05D
:100A20000E030B6001680B6823F001030B6090F864
:100A30004030C46B012101FA03F3636080F8211098
:100A400080F82020104610BD2DE9F05FC16B0C68C6
:100A500001680B68D0F840C0042202FA0CF2494D3C
:100A6000DFF824A1494E4A4FDFF828B1DFF828E12A
:100A700022422CD05A072AD50A68920603D40A6863
:100A800022F004020A600168A94201D1042219E09F
:100A9000514501D1402215E0B14202D14FF48062AC
:100AA00010E0B94202D14FF480420BE0594502D127
:100AB0004FF4802206E0714502D14FF4800201E03C
:100AC0004FF080622F4908394A60C16A3BE04FF01D
:100AD000020808FA0CF818EA040F4FF000094FF06A
:100AE000010235D05FEA837832D50B689B0605D4C6
:100AF0000B6823F00A030B6080F821200168A942EB
:100B000001D1022219E0514501D1202215E0B14264
:100B100002D14FF4007210E0B94202D14FF40052FA
:100B20000BE0594502D14FF4003206E0714502D185
:100B30004FF4001201E04FF00072124908394A6088
:100B400080F82090816A00291AD0BDE8F05F08473C
:100B5000082505FA0CF5254212D01B0710D50B68A5
:100B600023F00E030B6090F84010C36B02FA01F102
:100B70005960826380F8212080F82090016BE2E7C1
:100B8000BDE8F09F080002401C0002403000024017
:100B900044000240580002406C00024030B528B3C7
:100BA00008C8134914221944B1FBF2F18900C1634A
:100BB00010498163022141771A6843F6F0718A4334
:100BC000D0E900142143D0E902452C4321430469B4
:100BD0002143446921438469214311431960002161
:100BE0004163012242770177084630BD012030BDC4
:100BF000F8FFFDBF0000024070B5044690F82000E9
:100C0000002501280CD0012084F8200094F82160F0
:100C10000020012E06D084F820000225284670BD51
:100C2000022070BD022684F82160A0632068066857
:100C300026F0010606602046FFF7E6FBE06A002882
:100C40002068016802D041F00E0106E021F00401A5
:100C500001602068016841F00A01016020680168B4
:100C600041F001010160D9E770B5044600F010F9C8
:100C70000546601C02D004480078044400F008F9DE
:100C8000401BA042FAD370BD0C0000202DE9F84FA4
:100C9000DFF8B891002409F1040A0AF1040B234695
:100CA0000F270BF1040EC9E00125A5402A40AA42F6
:100CB0007DD1674ED1F804C0ACEB0608B44532D004
:100CC00014DCBCF1030F3AD009DCBCF1000F2AD0D0
:100CD000BCF1010F1CD0BCF1020F31D11DE0BCF101
:100CE000110F17D0BCF1120F2AD119E0B8F5881FE7
:100CF00019D006DCB8F5803F15D0B8F5801F1FD19C
:100D000011E0B8F5001F0ED0B8F5041F18D10AE0A5
:100D1000CB6815E0CB681B1D12E0CB6808330FE0F1
:100D2000CB680C330CE08B682BB1012B4FF0080320
:100D300003D0456104E0042302E0056100E00023E4
:100D4000FF2A01D8064601E000F104064FEA8405B7
:100D500001D9A5F12005D6F8008007FA05FC28EA9C
:100D60000C0803FA05F548EA0508C6F800804D6846
:100D7000ED0062D5374DAE6946F00106AE61AD6952
:100D800024F0030605F001050095334D06EB050C34
:100D9000DCF80850A607360F07FA06F825EA08051A
:100DA000DFF8B880404503D14FF0000817E044E079
:100DB000DFF8AC80404502D14FF001080FE0DFF8CA
:100DC000A480404502D14FF0020808E0DFF8988087
:100DD000404502D14FF0030801E04FF0040808FA43
:100DE00006F848EA0508CCF808804D68D9F8006094
:100DF000ED034D4601D5164300E096432E604D6845
:100E0000DAF80060AD03554601D5164300E096437D
:100E10002E604D68DBF80060ED025D4601D516439B
:100E200000E096432E604D68DEF80060AD02754626
:100E300001D5164300E096432E60641C0D682A46D7
:100E4000E5407FF431AFBDE8F88F000000040140B9
:100E50000000111000100240000001400008014095
:100E6000000C01400010014000140140806808405F
:100E700000D001207047C26821EA02030A4043EA19
:100E80000241016170470AB1016170470904FBE743
:100E900001488068704700000C000020024881680B
:100EA00002781144816070470C000020074810B59B
:100EB000016841F010010160032000F075F8002086
:100EC00000F006F800F024F8002010BD00200240D9
:100ED00070B50D4D04464FF47A712878B1FBF0F0EF
:100EE0000A490968B1FBF0F000F062FB48B9102C28
:100EF00007D200222146501E00F036F800206C6018
:100F000070BD012070BD00000C0000201800002002
:100F10000C4808B5816941F001018161816901F0E6
:100F200001010091C16941F08051C161C06900F0C7
:100F3000805000900448416821F0E06141F0007168
:100F4000416008BD0010024000000140002809DB9C
:100F500000F01F02012191404009800000F1E020D3
:100F6000C0F8001170470000F0B40E4B1B680C462F
:100F7000C3F30223C3F10705042D00D90425191D6D
:100F8000072901D2002300E0DB1E012606FA05F145
:100F9000491E214099409E40761E16403143F0BCC8
:100FA00001F0AFB80CED00E0064900F00702086858
:100FB0004FF6FF03184040EA0220034A104308603E
:100FC000704700000CED00E00000FA052DE9F84341
:100FD00005460078354CC00754D0E0690026C000B3
:100FE00008D4E06940F08050E061E069012600F03B
:100FF000805000902E480168C90512D401688046CF
:1010000041F480710160FFF743FF074605E000BF30
:10101000FFF73EFFC01B642823D8D8F80000C005A6
:10102000F6D5206A10F4407021D0A98801F44071EF
:1010300081421CD0206A1F49012220F440700A60BE
:1010400000220A602062C00711D0FFF721FF074687
:1010500041F2883808E000BFFFF71AFFC11B414585
:1010600002D90320BDE8F883206A8007F4D5206AFE
:10107000696820F44070084320621EB1E06920F0E6
:101080008050E0612878800705D56068A96820F461
:101090004040084360602878C00605D56068E9686C
:1010A00020F48000084360600020DBE7001002406D
:1010B00000700040400442422DE9F0470F46050011
:1010C00061D0434E306800F00700B84209D2306862
:1010D00020F0070038433060306800F00700B84265
:1010E00051D128683B4C810712D5400703D5606871
:1010F00040F4E06060602878000703D5606840F441
:10110000605060606068A96820F0F000084360608B
:101110002878C00728D06868012810D021680228E4
:1011200010D0890700292EDA616821F003010143FC
:101130006160FFF7ADFE804641F288390DE021681D
:101140008903EFE78901EDE7FFF7A2FEA0EB0801B5
:10115000494502D90320BDE8F0876068696800F05E
:101160000C00B0EB810FEFD1306800F00700B842FF
:101170000BD9306820F0070038433060306800F049
:101180000700B84201D00120E5E72878400705D5DF
:101190006068E96820F4E060084360602878000730
:1011A00006D56068296920F4605040EAC10060609B
:1011B00000F038F86168084AC1F30311515CC84077
:1011C0000649086006480068FFF782FE0020C2E773
:1011D00000200240001002400422000818000020F5
:1011E000100000200448054900684968044AC1F31A
:1011F0000221515CC84070471800002000100240D6
:10120000142200080448054900684968044AC1F3EB
:10121000C221515CC84070471800002000100240F5
:101220001422000812A185B00FC98DE80F0014A088
:10123000144A006804905168134801F00C03042B11
:1012400010D0082B0ED1C1F38343C9031DF803004E
:101250000AD5516804AAC1F34041515C0A4A50437F
:10126000B0FBF1F005B0704708494843FAE70000C9
:1012700002030405060708090A0B0C0D0E0F1010D7
:10128000010200000010024000127A0000093D0037
:101290002DE9F84F040070D02078C04DC00749D028
:1012A0006868C0F38100012807D06868C0F3810036
:1012B000022809D16868C00306D52868800339D59B
:1012C00060680028E7D035E06068B0F5803F0BD05B
:1012D00010B1B0F5A02F11D0286820F4803028601C
:1012E000286820F4802002E0286840F480302860DC
:1012F000606890B1FFF7CCFD06460AE0286840F42C
:1013000080202860F0E700BFFFF7C2FD801B642843
:1013100073D828688003F7D50CE0FFF7B9FD0646BF
:1013200005E000BFFFF7B4FD801B6428F0D82868F3
:101330008003F7D420789A4E80074FF001094FF0D0
:10134000000839D5686810F00C0F07D06868C0F342
:101350008100022809D16868C00306D42868800784
:1013600014D52069012808D110E02069B0B1C6F871
:101370000090FFF78DFD074605E00AE1FFF788FDC5
:10138000C01B0228C4D828688007F7D5286861697F
:1013900020F0F80040EAC10028600DE0C6F80080A7
:1013A000FFF776FD074604E0FFF772FDC01B022839
:1013B00023D828688007F7D4207800072CD57948EF
:1013C000A169D9B1C0F80090FFF762FD074604E0BB
:1013D000FFF75EFDC01B02280FD8686A8007F7D5AB
:1013E00071484FF4FA510068B0FBF1F0009000BF73
:1013F0000098411E0091FAD20EE080E0C0F8008013
:10140000FFF746FD074604E0FFF742FDC01B022838
:1014100075D8686A8007F7D42078400760D5E869F6
:101420000027C00008D4E86940F08050E861E8690E
:10143000012700F0805000905C480168C90513D472
:101440000168834641F480710160FFF721FD824607
:1014500006E000BFFFF71CFDA0EB0A0064284ED891
:10146000DBF80000C005F5D5E06801280AD008B116
:10147000052813D0286A20F001002862286A20F08D
:10148000040002E0286A40F001002862E06841F2AE
:10149000883B98B1FFF7FCFC82460BE0286A40F0DD
:1014A00004002862EEE700BFFFF7F2FCA0EB0A01A0
:1014B00059455AD8286A8007F6D50CE0FFF7E8FCB2
:1014C000824605E0FFF7E4FCA0EB0A0159454CD841
:1014D000286A8007F6D41FB1E86920F08050E861DF
:1014E000E06988B36968C1F38101022944D0022808
:1014F000C6F8608004D0FFF7CBFC044638E034E047
:10150000FFF7C6FC074604E0FFF7C2FCC01B022839
:101510002BD828688001F7D4206AB0F5803F05D128
:101520006868A16820F4003008436860D4E90801C5
:101530000843696821F4741108436860C6F8609034
:10154000FFF7A6FC044606E025E000BFFFF7A0FC7D
:10155000001B022809D828688001F7D51BE000BFCE
:10156000FFF796FC001B022802D90320BDE8F88F84
:1015700028688001F4D40EE00128F7D06868226A58
:1015800000F48031914204D1616A00F47010884205
:1015900001D00120EAE70020E8E700000010024047
:1015A00000004242800442421800002000700040C7
:1015B00010B5401EB0F1807F01D3012010BD4FF067
:1015C000E02460610F21601700F09BFD0020A06106
:1015D00007202061002010BD10B590F83C20012AA2
:1015E00022D0012280F83C20CA688C6822F4407224
:1015F00022434C6822F4806222430C6822F4006289
:1016000022430C6922F4805222434C6922F4005296
:101610002243C969002322F480420A4301684A64D4
:1016200080F83C30002010BD022010BD70B590F84D
:101630003C20012A26D0012480F83C40022280F878
:101640003D2003685A689D6822F070060A6832439C
:101650005A600D4B02689A4208D0B2F1804F05D013
:101660000A4B9A4202D00A4B9A4204D1496825F0AB
:1016700080031943916080F83D40002180F83C10C0
:10168000084670BD022070BD002C014000040040DF
:101690000008004010B5040003D094F83D0010B1DC
:1016A00007E0012010BD002084F83C00204600F037
:1016B0001FF8022084F83D00211D206800F054FB33
:1016C000012084F8460084F83E0084F83F0084F846
:1016D000400084F8410084F8420084F8430084F814
:1016E000440084F8450084F83D00002010BD00004F
:1016F00008B500680649884208D10648816941F466
:1017000000618161806900F40060009008BD000004
:10171000002C01400010024070B5044690F83C00D7
:10172000012817D0012584F83C50022084F83D00A0
:101730002068826822F0770222F47F428260086883
:10174000502830D00DDC20284DD005DC98B310286F
:101750003BD148E0022070BD302844D0402834D12D
:1017600039E0602828D0702806D0B0F5805F2CD0F2
:10177000B0F5005F29D10AE0CB68D1E901212068EA
:1017800000F028FB2068816841F0770109E0CB6810
:10179000D1E90121206800F01DFB2068816841F437
:1017A0008041816011E0CA684968206800F0C6FB8A
:1017B0005021206807E016E0CA684968206800F0F8
:1017C000CEFB6021206800F00FFB84F83D50002024
:1017D00084F83C0070BDCA684968206800F0AEFB20
:1017E00040212068EFE7226801461046EBE7000041
:1017F00000B585B00021009101910291039100682C
:101800000B49884212D10B48816941F00401816182
:101810008069694600F0040004904FF40070009065
:101820000220019003900448FFF730FA05B000BD94
:10183000002C0140001002400008014070B5044631
:1018400090F83C000D4601280AD0012084F83C00A5
:1018500042B1042A18D0082A2AD00C2A4DD139E0E6
:10186000022070BD206800F0C7FA2068816941F04D
:10187000080181612068816921F00401816120688B
:1018800081692A69114311E0206800F0DDFA2068BF
:10189000816941F4006181612068816921F480617E
:1018A0008161206881692A6941EA0221816124E01D
:1018B000206800F0F5FA2068C16941F00801C161B3
:1018C0002068C16921F00401C1612068C1692A69E9
:1018D000114311E0206800F00FFB2068C16941F45A
:1018E0000061C1612068C16921F48061C161206823
:1018F000C1692A6941EA0221C161002084F83C00E3
:1019000070BD10B5040003D094F83D0010B107E09D
:10191000012010BD002084F83C00204600F01EF895
:10192000022084F83D00211D206800F01DFA0120EE
:1019300084F8460084F83E0084F83F0084F84000B4
:1019400084F8410084F8420084F8430084F844009D
:1019500084F8450084F83D00002010BD70477047B2
:1019600070B5040004D094F83D00002510B106E0E5
:10197000012070BD84F83C50204600F023F824205C
:1019800084F83D002068C16821F40051C160204600
:1019900000F05AFB2068016921F490410161206840
:1019A000416921F02A0141612068C16841F4005178
:1019B000C1602564202084F83D0084F83E000020AA
:1019C00070BD0000F0B585B0002406460094019477
:1019D0000294039400682B49884250D12A488169B7
:1019E00041F480418161816901F480410491816900
:1019F00041F0080181618069244D00F008000490E5
:101A00004020009002200190032003906946284660
:101A1000FFF73CF98027CDE9007469462846029417
:101A2000FFF734F91A48416841F0E06141F00401E0
:101A30004160194D1748C5E90004C5E902472C610A
:101A40006C61AC612846EC61FFF7A8F808B1FEF7BD
:101A500015FDB5636E620F48104D143801C5102096
:101A600091C5202045F81049C5E905400B48EC61B7
:101A7000FFF794F808B1FEF701FD75636E6205B0DB
:101A8000F0BD00000038014000100240000C014091
:101A900000000140580002401C01002060010020AD
:101AA00070B5044690F83D00202830D169B362B388
:101AB00094F83C0001282AD0012084F83C002162DF
:101AC000A284E28400252564212084F83D00636B14
:101AD00010489862636B1048D862636B0F481863B4
:101AE000606B134645632668606B321DFFF784F810
:101AF00021686FF04000086084F83C50206841691C
:101B000041F080014161002070BD012070BD0220C4
:101B100070BD0000CD1F0008FB1F0008831F0008D8
:101B200070477047FEE700003EB500241648009459
:101B3000019414490294016089158160047304754D
:101B4000022505614FF460214460C161FEF7C8FDC4
:101B500008B172B6FEE70120CDE9004007200290EF
:101B600069460948FEF78EFC08B172B6FEE700959B
:101B7000694605480195FEF785FC002801D072B63C
:101B8000FEE73EBD002401401C00002070B586B079
:101B900000241E480094019402940394816941F04A
:101BA00020018161816901F020010491816941F086
:101BB00004018161816901F004010491816941F0AE
:101BC000080181618069124E00F008000490012232
:101BD0000A213046FFF757F9002220213046FFF74F
:101BE00052F92A200125CDE900050220CDE9024065
:101BF00069463046FFF74AF810208DE83100694603
:101C00003046FFF743F806B070BD000000100240F8
:101C10000008014010B596B000240F941094119460
:101C2000129413941C2108A81494FEF7CDFA2021D5
:101C30006846FEF7C9FA29482749016040F29F51DA
:101C4000C0E9011440F2E731C0E903148021C0E982
:101C50000541FFF71FFD08B172B6FEE74FF4805053
:101C60000F900FA91D48FFF757FD08B172B6FEE7A8
:101C70001A48FFF746FE08B172B6FEE7139413A99F
:101C800016481494FFF7D2FC08B172B6FEE7602044
:101C9000CDE908040A940B940C940D94042208A92D
:101CA0000E480E94FFF7CAFD08B172B6FEE7009425
:101CB0004FF40050CDE90440029401940394694626
:101CC00006480794FFF788FC08B172B6FEE70348A0
:101CD000FFF78EFD16B010BD002C01404C00002017
:101CE000FEE7FEE770477047FFF7D8B830B593B00E
:101CF00028216846FEF768FA14210AA8FEF764FA5C
:101D0000002501200F9510951195010412958DE87D
:101D1000230004904FF4E010CDE90810022407944A
:101D20006846FFF7B5FA08B172B6FEE70AA90F20B8
:101D300081E831004FF48060CDE90D0502210AA849
:101D4000FFF7BAF908B172B6FEE74FF40040119000
:101D50000F940FA8FFF73AF9002801D072B6FEE7FA
:101D600013B030BD70470000F0B50268164B174C39
:101D7000174D4FF08047984205D0B84203D0A0429B
:101D800001D0A84203D122F070064A68324398423B
:101D900005D0B84203D0A04201D0A84203D122F41A
:101DA0004074CA6822434C6922F0800222430260D8
:101DB0008A68C2620A688262984201D10969016335
:101DC00001214161F0BD0000002C014000040040F1
:101DD0000008004010B5846842EA032224F47F44DE
:101DE0000A432243826010BD826822F070020A43D7
:101DF00042F007018160704730B5026A22F00102AB
:101E00000262026A4368846924F073050C682C43FB
:101E100022F002058A682A430A4DA8420BD122F01B
:101E20000805CA6823F440732A434D6922F004026E
:101E30001D438B692B43436084614968416302629F
:101E400030BD0000002C014030B5026A22F01002C3
:101E50000262026A436884690D6824F4E64444EA35
:101E600005248D6822F0200242EA05120B4DA8429B
:101E70000ED1CD6822F0800242EA05124D6923F4AA
:101E8000406343EA85038D6922F0400243EA8503FB
:101E90004360846149688163026230BD002C014067
:101EA00030B5026A22F480720262036A4268C46931
:101EB00023F4007324F073050C682C438D6843EA07
:101EC00005230C4DA8420ED1CD6823F4006343EAEC
:101ED00005234D6922F4405242EA05128D6923F42C
:101EE000806342EA05124260C4614968C1630362CB
:101EF00030BD0000002C014030B5026A22F480524F
:101F00000262046A4268C3690D6823F4E64343EA47
:101F100005238D6824F4005444EA0534064DA84294
:101F200004D14D6922F4804242EA85124260C361C5
:101F300049680164046230BD002C014010B5036A99
:101F4000046A24F001040462846924F0F00444EA81
:101F5000021423F00A020A438461026210BD10B524
:101F6000036A23F0100303628369046A23F4704355
:101F700043EA023224F0A00343EA011182610162C4
:101F800010BD70B5446A2068406994F83D10C0F3F4
:101F9000C0100025212904D118B1E584204600F0A5
:101FA00049F82068406994F83E10C0F38010222957
:101FB00004D118B1E585204600F024F8206C40F0EB
:101FC000100020642046FFF7CAFC70BD10B5014622
:101FD000406A0968096889060CD40021C184016837
:101FE0004A6922F080024A610068C16841F04001FC
:101FF000C16010BDFFF794FD10BD10B5406AFFF73A
:1020000090FD10BD0168CA6822F49072CA60016830
:102010004A6922F001024A61016B012904D1016879
:10202000CA6822F01002CA60202180F83E10002108
:10203000016370470168CA6822F0C002CA602021AB
:1020400080F83D107047000070B5044600680169D3
:10205000E26821F44051114301612169A0680843FD
:10206000616908432168CA6841F20C639A430243DC
:10207000CA6020684169A26921F44071114341613D
:102080001E492068884202D1FFF7BCF801E0FFF743
:10209000A9F800EBC00101EB001260686421800028
:1020A000B2FBF0F3B3FBF1F36FF018067343B2FB2E
:1020B000F0F5B2FBF0F605EB8305322303EB0515D3
:1020C000B5FBF1F5B6FBF1F605F0F00505EB0615ED
:1020D000B2FBF0F6B2FBF0F0B0FBF1F06FF01802DB
:1020E000504306EB800003EB0010B0FBF1F02168D9
:1020F00000F00F002844886070BD000000380140E7
:10210000FEE70907090E002804DB00F1E02080F853
:102110000014704700F00F0000F1E02080F8141D5B
:102120007047000008B5FEF7C1FEFFF7DFFDFFF7BF
:102130002DFD2F48416941F00101416140690022B4
:1021400000F00100009001210B20FEF70DFF0B2095
:10215000FEF7FCFE002211460E20FEF705FF0E20C2
:10216000FEF7F4FE002211460F20FEF7FDFE0F20C1
:10217000FEF7ECFEFFF7D8FCFFF74CFD1E481D49AB
:102180000C2201604FF4E131416000218160C160A7
:10219000C0E904128161C161FFF7E2FB08B172B6C8
:1021A000FEE7032215491448FFF77AFC134D144E3D
:1021B0002C1F124910480222091D7838FEF770FBC7
:1021C000FEF738F9012807D120213046FEF753FEEB
:1021D000E07858B10020E070A07830302870607846
:1021E00030306870E0783030A870E2E70120F2E724
:1021F000001002400038014094000020040000203C
:10220000000801400000000000000000010203047B
:102210000607080900000000010203043C22000830
:10222000000000201C0000002801000858220008BF
:102230001C000020EC070000440100080000000022
:10224000000000000000000001000000100000007D
:08225000000000000024F4006E
:04000005080000ED02
:00000001FF
